:020000040000FA
:100000000C945C000C9479000C9479000C947900A9
:100010000C9479000C9479000C9479000C9479007C
:100020000C9479000C9479000C9479000C9479006C
:100030000C9479000C948E010C9479000C94790046
:100040000C9444010C9479000C9479000C94790080
:100050000C9479000C9479000C9479000C9479003C
:100060000C9479000C947900000000080002010053
:100070000003040700000000000000000000000072
:10008000250028002B0000000000240027002A0083
:10009000040404040404040402020202020203032E
:1000A0000303030301020408102040800102040836
:1000B000102001020408102011241FBECFEFD8E049
:1000C000DEBFCDBF11E0A0E0B1E0E2EFF4E002C09E
:1000D00005900D92A834B107D9F721E0A8E4B1E06A
:1000E00001C01D92AA35B207E1F70E94B5010C9438
:1000F00077020C94000090E0FC01EC55FF4F249136
:1001000080579F4FFC018491882399F090E0880FDD
:10011000991FFC01EA57FF4FA591B491FC01E458E7
:10012000FF4F859194918FB7F894EC91E22BEC936B
:100130008FBF089590E0FC01E859FF4F2491FC0126
:10014000EC55FF4F3491FC01E057FF4FE491EE2353
:10015000C9F0222339F0233001F1A8F4213019F13C
:10016000223029F1F0E0EE0FFF1FE458FF4FA59178
:10017000B4918FB7F894EC91611126C030953E236D
:100180003C938FBF08952730A9F02830C9F0243060
:1001900049F7809180008F7D03C0809180008F7728
:1001A00080938000DFCF84B58F7784BDDBCF84B5AB
:1001B0008F7DFBCF8091B0008F778093B000D2CF3E
:1001C0008091B0008F7DF9CF3E2BDACF809148012E
:1001D00090914901892B69F581E090E09093490164
:1001E000809348018091560190915701A091580148
:1001F000B09159010196A11DB11D809356019093B4
:100200005701A0935801B0935901809156019091E4
:100210005701A0915801B09159010997A105B10565
:1002200019F480E180938100609148018DE00C9485
:100230009A001092490110924801F6CF3FB7F89406
:1002400080914F0190915001A0915101B0915201C4
:1002500026B5A89B05C02F3F19F00196A11DB11D21
:100260003FBFBA2FA92F982F8827BC01CD01620F5D
:10027000711D811D911D42E0660F771F881F991F18
:100280004A95D1F7089508951F920F920FB60F92D5
:1002900011242F933F938F939F93AF93BF9380919C
:1002A0004B0190914C01A0914D01B0914E013091C4
:1002B0004A0123E0230F2D3758F50196A11DB11DEA
:1002C00020934A0180934B0190934C01A0934D01E0
:1002D000B0934E0180914F0190915001A091510136
:1002E000B09152010196A11DB11D80934F019093D1
:1002F0005001A0935101B0935201BF91AF919F91D2
:100300008F913F912F910F900FBE0F901F901895D6
:1003100026E8230F0296A11DB11DD2CF1F920F9286
:100320000FB60F9211242F933F934F935F936F93C8
:100330007F938F939F93AF93BF93EF93FF93E0913E
:100340000001F09101010995FF91EF91BF91AF91EB
:100350009F918F917F916F915F914F913F912F91DD
:100360000F900FBE0F901F901895789484B58260FF
:1003700084BD84B5816084BD85B5826085BD85B549
:10038000816085BD80916E00816080936E001092C7
:100390008100809181008260809381008091810042
:1003A00081608093810080918000816080938000D3
:1003B0008091B10084608093B1008091B000816031
:1003C0008093B00080917A00846080937A0080915D
:1003D0007A00826080937A0080917A0081608093B5
:1003E0007A0080917A00806880937A001092C10030
:1003F00082E00E947B0083E00E947B0084E00E94F8
:100400007B0085E00E947B0086E00E947B0087E005
:100410000E947B0088E00E947B0089E00E947B00B4
:1004200060E089E00E949A008DE00E947B0080E1FC
:10043000809381001092800083E08093530184EDCB
:1004400090E390935501809354019093870080939B
:10045000860083E18093810086EE90E09093010115
:100460008093000181E080936F0087E0B82E00E068
:1004700010E0F8948091560190915701A091580195
:10048000B091590178948B9D70011124D0E0C0E0A7
:10049000F701EC0FFD1FEE5FFE4F60818C2F8E5F2A
:1004A0000E949A002196C730D10591F70E941E0143
:1004B0006B017C010E941E016C197D098E099F0948
:1004C000683E734081059105A8F38BE00E947B0094
:1004D00061E08BE00E949A008091530180618093DB
:1004E00081000115110529F20E940000C2CFF89485
:1004F000FFCF4301010101010101000001010000E2
:1005000000000101000101000101010101000001E1
:1005100000010100000101010001010001010100D1
:1005200001010101010101010000000001010101BF
:0A05300001010101010101000101B8
:107E0000112484B714BE81FFF0D085E080938100F7
:107E100082E08093C00088E18093C10086E0809377
:107E2000C20080E18093C4008EE0C9D0259A86E02C
:107E300020E33CEF91E0309385002093840096BBD3
:107E4000B09BFECF1D9AA8958150A9F7CC24DD24C4
:107E500088248394B5E0AB2EA1E19A2EF3E0BF2EE7
:107E6000A2D0813461F49FD0082FAFD0023811F036
:107E7000013811F484E001C083E08DD089C08234E0
:107E800011F484E103C0853419F485E0A6D080C0E4
:107E9000853579F488D0E82EFF2485D0082F10E0AE
:107EA000102F00270E291F29000F111F8ED06801E7
:107EB0006FC0863521F484E090D080E0DECF843638
:107EC00009F040C070D06FD0082F6DD080E0C81688
:107ED00080E7D80618F4F601B7BEE895C0E0D1E017
:107EE00062D089930C17E1F7F0E0CF16F0E7DF06D8
:107EF00018F0F601B7BEE89568D007B600FCFDCFD4
:107F0000A601A0E0B1E02C9130E011968C91119780
:107F100090E0982F8827822B932B1296FA010C0160
:107F200087BEE89511244E5F5F4FF1E0A038BF0790
:107F300051F7F601A7BEE89507B600FCFDCF97BE46
:107F4000E89526C08437B1F42ED02DD0F82E2BD052
:107F50003CD0F601EF2C8F010F5F1F4F84911BD097
:107F6000EA94F801C1F70894C11CD11CFA94CF0C13
:107F7000D11C0EC0853739F428D08EE10CD085E9AC
:107F80000AD08FE07ACF813511F488E018D01DD067
:107F900080E101D065CF982F8091C00085FFFCCF94
:107FA0009093C60008958091C00087FFFCCF809118
:107FB000C00084FD01C0A8958091C6000895E0E648
:107FC000F0E098E1908380830895EDDF803219F02E
:107FD00088E0F5DFFFCF84E1DECF1F93182FE3DFCA
:107FE0001150E9F7F2DF1F91089580E0E8DFEE27F6
:047FF000FF270994CA
:027FFE00040479
:00000001FF
